S00B0000534F432E7372656334
S1130000FDC000001AC1000018C1000016C10000A4
S113001014C1000012C1000010C100000EC1000094
S11300200CC100000AC1000008C1000006C10000A4
S113003004C1000002C1000000C10000FEC00000B5
S1130040FCC00000FAC00000F8C00000F6C00000C8
S1130050F4C00000F2C00000F0C00000EEC00000D8
S1130060ECC00000EAC00000E8C00000E6C00000E8
S1130070E4C00000E2C00000E0C00000DEC00000F8
S1130080DCC00000DAC00000D8C00000D6C0000008
S1130090D4C00000D2C00000D0C00000CEC0000018
S11300A0CCC00000CAC00000C8C00000C6C0000028
S11300B0C4C00000C2C00000C0C00000BEC0000038
S11300C0BCC00000BAC00000B8C00000B6C0000048
S11300D0B4C00000B2C00000B0C00000AEC0000058
S11300E0ACC00000AAC00000A8C00000A6C0000068
S11300F0A4C00000A2C00000A0C000009EC0000078
S11301009CC000009AC0000098C0000096C0000087
S113011094C0000092C0000090C000008EC0000097
S11301208CC000008AC0000088C0000086C00000A7
S113013084C0000082C0000080C000007EC00000B7
S11301407CC000007AC0000078C0000076C00000C7
S113015074C0000072C0000070C000006EC00000D7
S11301606CC000006AC0000068C0000066C00000E7
S113017064C0000062C0000060C000005EC00000F7
S11301805CC000005AC0000058C0000056C0000007
S113019054C0000052C0000050C000004EC0000017
S11301A04CC000004AC0000048C0000046C0000027
S11301B044C0000042C0000040C000003EC0000037
S11301C03CC000003AC0000038C0000036C0000047
S11301D034C0000032C0000030C000002EC0000057
S11301E02CC000002AC0000028C0000026C0000067
S11301F024C0000022C0000020C0000011241FBE43
S1130200CFEFDFE5DEBFCDBF00E00CBF10E2A0E022
S1130210B0E2E8E2FDE000E00BBF02C007900D92FF
S1130220A830B107D9F720E2A8E0B0E201C01D92DE
S1130230A830B207E1F724D575C5E2CEA4E0B0E05A
S1130240E3E2F1E040C57C016A01FC018081823077
S113025008F44AC1FB019081923008F442C1843011
S113026079F4943009F040C1F7019181FB01818157
S1130270981709F439C1A0E0EA2EA0E2FA2E34C19D
S1130280943009F42EC1923091F4823009F02CC1DB
S113029088E0F701DA0101900D928A95E1F7FB01FC
S11302A08181F70191818923FA0181831CC1823004
S11302B009F417C1F70182819381FB01A281B38103
S11302C0F7010481158126813781FB0184809580A3
S11302D0A680B780FC01EA1BFB0BAF01F7FF04C04B
S11302E0442755274E1B5F0B403251050CF074C058
S11302F01E161F06B4F524013501042E04C076949D
S11303006794579447940A94D2F749825A826B822D
S11303107C82412C512C3201439404C0440C551C62
S1130320661C771C4A95D2F741E0441A51086108CB
S11303307108482059206A207B20812C912C54017B
S1130340839445284628472819F4812C912C54017C
S113035049805A806B807C8084289528A628B728F9
S113036046C0EF2B09F443C0840F951F28013901BF
S1130370042E04C076946794579447940A94D2F751
S113038049825A826B827C82412C512C32014394E3
S113039004C0440C551C661C771C4A95D2F741E0F6
S11303A0441A5108610871084022512262227322C2
S11303B001E010E020E030E045284628472819F401
S11303C000E010E0980149805A806B807C80042909
S11303D01529262937290BC0A817B90724F4812C1D
S11303E0912C540104C0CD0100E010E09801F70104
S11303F04181FB015181451709F446C0442349F06A
S113040024013501401A510A620A730A93018201D8
S113041004C0081919092A093B0937FD05C0F6016A
S11304201182828393830CC041E0F601418382836D
S1130430938330952095109501951F4F2F4F3F4F73
S113044004831583268337830EC0880F991FAA1F40
S1130450BB1FF60184839583A683B783828193812E
S1130460019782839383F60184819581A681B78164
S1130470AC01BD0141505109610971094F3F5F4F02
S11304806F4F7F4310F30CC0F60141838283938343
S1130490080D191D2A1D3B1D0483158326833783EC
S11304A083E0F6018083448155816681778177FFFB
S11304B01AC0DB01CA0181709927AA27BB27769548
S11304C0679557954795842B952BA62BB72B84833B
S11304D09583A683B78382819381019682839383D4
S11304E002C07B0101C07601C7012496E0E104C487
S11304F0A0E2B0E0EDE7F2E0F4C36D8F7E8F8F8F62
S113050098A3298F3A8F4B8F5C8FBE016F5E7F4F0C
S1130510CE014D96E7D1BE01675F7F4FCE0149966C
S1130520E1D1AE014F5F5F4FBE01675F7F4FCE01E8
S1130530419684DE0DD1A096E2E0ECC3A0E2B0E0E7
S1130540E3EAF2E0CEC36D8F7E8F8F8F98A3298F5D
S11305503A8F4B8F5C8FBE016F5E7F4FCE014D96FD
S1130560C1D1BE01675F7F4FCE014996BBD18A8559
S113057091E089278A87AE014F5F5F4FBE01675FB5
S11305807F4FCE0141965ADEE3D0A096E2E0C2C38B
S1130590A0E2B0E0EDECF2E096C36D8F7E8F8F8F1A
S11305A098A3298F3A8F4B8F5C8FBE016F5E7F4F6C
S11305B0CE014D9697D1BE01675F7F4FCE0149961C
S11305C091D19989923008F412C08985823008F457
S11305D01AC0943021F4823009F4B4C008C08430C5
S11305E021F4923009F4AEC00EC0923051F481E08F
S11305F02A899A85291301C080E08A8BCE0141960D
S1130600A3C0823051F481E02A899A85291301C05C
S113061080E08A87CE01099697C08D889E88AF882E
S1130620B88C0D851E852F853889E0E2F0E080E0E6
S113063090E0DC01C12CD12C760140E050E0BA01FD
S113064080FE18C0400F511F621F731F8C0D9D1D2B
S1130650AE1DBF1D412C512C32014394401751074C
S11306606207730718F0412C512C3201840D951D3B
S1130670A61DB71DCC0CDD1CEE1CFF1C37FF02C0F1
S11306806894C0F8000F111F221F331FB694A7945B
S1130690979487943197A1F62B893C89EB85FC8547
S11306A02E0F3F1F2E5F3F4F2B833C8321E0EA89AF
S11306B03A85E31301C020E02A83EB81FC810CC05E
S11306C080FF05C076956795579547957068B695F0
S11306D0A795979587953196B7FDF2CF9F010CC0EA
S11306E0880F991FAA1FBB1F77FD8160440F551FF8
S11306F0661F771F215031090097A105E0E4BE076A
S113070078F32B833C838C019D010F7711272227DB
S11307103327003411052105310559F487FD09C03B
S1130720452B462B472B29F0805C9F4FAF4FBF4F83
S113073080788D839E83AF83B88783E08983CE01DD
S1130740019602C080E090E203D0A096E0E1D4C21A
S11307500F931F93CF93DF93DC0114964D915D911A
S11307606D917C9117971196EC9111978C91823031
S113077020F460618FEF90E0A6C0843009F49EC03D
S1130780823009F495C0411551056105710509F4DC
S113079092C012962D913C91139722388FEF38070F
S11307A00CF058C0C2E8DFEFC21BD30BCA31D1052D
S11307B06CF58A019B010C2E04C03695279517957C
S11307C007950A94D2F781E090E0A0E0B0E00C2E07
S11307D004C0880F991FAA1FBB1F0A94D2F7019760
S11307E0A109B10984239523A623B72341E050E04E
S11307F060E070E0892B8A2B8B2B19F440E050E0E9
S1130800BA01402B512B622B732B03C040E050E004
S1130810BA01DB01CA018F779927AA27BB27803445
S11308209105A105B10539F447FF09C0405C5F4F4C
S11308306F4F7F4F04C0415C5F4F6F4F7F4F81E02C
S113084090E041155105610520E4720748F580E008
S113085090E026C0203831058CF5DB01CA018F7782
S11308609927AA27BB2780349105A105B10539F43E
S113087047FF09C0405C5F4F6F4F7F4F04C0415C2E
S11308805F4F6F4F7F4F77FD04C0C90181589F4F61
S113089007C07695679557954795C90180589F4F2E
S11308A097E076956795579547959A95D1F70BC03C
S11308B080E090E005C080E090E005C08FEF90E01C
S11308C040E050E0BA01982F9695E0FB97F9362F57
S11308D080FB37F9642F752F832FDF91CF911F9100
S11308E00F910895CF92DF92EF92DC01FB01CC903F
S11308F01196DC90119712968C9112973FE7E32E94
S1130900E8226E2DA60170E0982F991F9927991F50
S113091013962C91822F880F892B90E027FB222796
S113092020F92183009729F54115510561057105C9
S113093011F482E027C082E89FEF8283938327E04B
S1130940440F551F661F771F2A95D1F783E08083D4
S113095009C0440F551F661F771F82819381019739
S11309608283938341155105610580E4780788F3F8
S113097020C08F3F910579F441155105610571053A
S113098019F484E0808319C0E4FE03C081E080830D
S113099010C010820EC08F5791098283938383E025
S11309A0808387E0440F551F661F771F8A95D1F710
S11309B070644483558366837783EF90DF90CF9090
S11309C00895CF93DF93FC01709620E030E0C62FAA
S11309D0D0E0DE01022E02C0B595A7950A94E2F795
S11309E0A0FD50832F5F3F4F31962830310589F7A2
S11309F040FF0AC041FF03C0FC01658302C0FC0143
S1130A006683FC01618302C0FC016283DF91CF91A4
S1130A10089543E050E061E080E896E0D2DF43E0EF
S1130A2050E062E080E896E0CCDF43E050E064E030
S1130A3080E896E0C6DF43E050E068E080E896E0B6
S1130A40C0DF43E050E060E180E896E0BADF43E0D5
S1130A5050E060E280E896E0B4DF43E050E060E418
S1130A6080E896E0AEDF43E050E060E880E896E09E
S1130A70A8DF40E058E161E080EA96E0A2DF40E0D0
S1130A8058E162E080EA96E09CDF40E058E164E0EF
S1130A9080EA96E096DF40E058E168E080EA96E07C
S1130AA090DF40E058E160E180EA96E08ADF40E0D0
S1130AB058E160E280EA96E084DF40E058E160E4D7
S1130AC080EA96E07EDF40E058E160E880EA96E064
S1130AD078CF2F923F924F925F926F927F928F9234
S1130AE09F92AF92BF92CF92DF92EF92FF920F93B9
S1130AF01F93CF93DF93CDB7DEB72C97CDBFDEBF67
S1130B008F83988749875A871B0181E0281A310807
S1130B10F101E20FF31FE983FA83EF2B09F47DC09F
S1130B20802E912E81E090E03C01621A730AA12C80
S1130B30B12CC90101978B839C832D823E828B86C5
S1130B409C86F40110821182128213828B819C8113
S1130B50A816B906E0F1CD80DE80A214B30408F42F
S1130B606501C614D704E0F522C0EB85FC856191CC
S1130B70719181919191EB87FC87F8015291429197
S1130B80329122918F0104DD9B01AC01F701608158
S1130B90718182819381ACDCF701608371838283EC
S1130BA09383FFEF4F1A5F0AC414D504F0F68FEF56
S1130BB0A81AB80A94E0890E911CEFEF6E1A7E0A07
S1130BC089819A81A816B90608F4B9CF26C0CD80C8
S1130BD0DE80A214B30408F46501412C512C01C039
S1130BE023017201EE0CFF1CEE0CFF1CEF81F88553
S1130BF0EE0EFF1E85010F5F1F4F04191509000F2C
S1130C00111F000F111F89859A85080F191F8B85E5
S1130C109C85EB86FC867C01A8CF2C96CDBFDEBFDD
S1130C20DF91CF911F910F91FF90EF90DF90CF90C4
S1130C30BF90AF909F908F907F906F905F904F90F8
S1130C403F902F9008950F931F93DF938B0120E023
S1130C5030E04DB75EB74F5F5F4F60E070E039DF63
S1130C60DF911F910F9108950F931F938A0120E044
S1130C7030E0AB0160E070E02CDF1F910F9108952C
S1130C80CF93DF93CDB7DEB7DB54CDBFDEBFC1DE7C
S1130C90AE014F575A4DBE016F5F7F4FCE018F5348
S1130CA09D4EE2DFBE016F5B774CCE018F539D4EAC
S1130CB0CADF80E090E0D55BCDBFDEBFDF91CF918E
S1130CC008952F923F924F925F926F927F928F92EC
S1130CD09F92AF92BF92CF92DF92EF92FF920F93C7
S1130CE01F93CF93DF93CDB7DEB7CA1BDB0BCDBF0A
S1130CF0DEBF19942A88398848885F846E847D848D
S1130D008C849B84AA84B984C884DF80EE80FD80AF
S1130D100C811B81AA81B981CE0FD11DCDBFDEBF4D
S10B0D20ED010895F894FFCFE2
S10B0D280000000000000000BF
S9030000FC
